{
  "contractName": "SolnSquareVerifier",
  "abi": [
    {
      "inputs": [
        {
          "internalType": "address",
          "name": "squareVerifier_address",
          "type": "address"
        },
        {
          "internalType": "string",
          "name": "name",
          "type": "string"
        },
        {
          "internalType": "string",
          "name": "symbol",
          "type": "string"
        }
      ],
      "payable": false,
      "stateMutability": "nonpayable",
      "type": "constructor"
    },
    {
      "anonymous": false,
      "inputs": [
        {
          "indexed": true,
          "internalType": "address",
          "name": "owner",
          "type": "address"
        },
        {
          "indexed": true,
          "internalType": "address",
          "name": "approved",
          "type": "address"
        },
        {
          "indexed": true,
          "internalType": "uint256",
          "name": "tokenId",
          "type": "uint256"
        }
      ],
      "name": "Approval",
      "type": "event"
    },
    {
      "anonymous": false,
      "inputs": [
        {
          "indexed": true,
          "internalType": "address",
          "name": "owner",
          "type": "address"
        },
        {
          "indexed": true,
          "internalType": "address",
          "name": "operator",
          "type": "address"
        },
        {
          "indexed": false,
          "internalType": "bool",
          "name": "approved",
          "type": "bool"
        }
      ],
      "name": "ApprovalForAll",
      "type": "event"
    },
    {
      "anonymous": false,
      "inputs": [
        {
          "indexed": false,
          "internalType": "address",
          "name": "owner",
          "type": "address"
        }
      ],
      "name": "OwnerChanged",
      "type": "event"
    },
    {
      "anonymous": false,
      "inputs": [
        {
          "indexed": false,
          "internalType": "address",
          "name": "actor",
          "type": "address"
        }
      ],
      "name": "Paused",
      "type": "event"
    },
    {
      "anonymous": false,
      "inputs": [
        {
          "indexed": false,
          "internalType": "uint256",
          "name": "_index",
          "type": "uint256"
        },
        {
          "indexed": false,
          "internalType": "address",
          "name": "_address",
          "type": "address"
        }
      ],
      "name": "Solution_added",
      "type": "event"
    },
    {
      "anonymous": false,
      "inputs": [
        {
          "indexed": true,
          "internalType": "address",
          "name": "from",
          "type": "address"
        },
        {
          "indexed": true,
          "internalType": "address",
          "name": "to",
          "type": "address"
        },
        {
          "indexed": true,
          "internalType": "uint256",
          "name": "tokenId",
          "type": "uint256"
        }
      ],
      "name": "Transfer",
      "type": "event"
    },
    {
      "anonymous": false,
      "inputs": [
        {
          "indexed": false,
          "internalType": "address",
          "name": "actor",
          "type": "address"
        }
      ],
      "name": "Unpaused",
      "type": "event"
    },
    {
      "constant": true,
      "inputs": [
        {
          "internalType": "bytes32",
          "name": "_myid",
          "type": "bytes32"
        },
        {
          "internalType": "string",
          "name": "_result",
          "type": "string"
        }
      ],
      "name": "__callback",
      "outputs": [],
      "payable": false,
      "stateMutability": "pure",
      "type": "function"
    },
    {
      "constant": true,
      "inputs": [
        {
          "internalType": "bytes32",
          "name": "_myid",
          "type": "bytes32"
        },
        {
          "internalType": "string",
          "name": "_result",
          "type": "string"
        },
        {
          "internalType": "bytes",
          "name": "_proof",
          "type": "bytes"
        }
      ],
      "name": "__callback",
      "outputs": [],
      "payable": false,
      "stateMutability": "pure",
      "type": "function"
    },
    {
      "constant": true,
      "inputs": [
        {
          "internalType": "uint256",
          "name": "",
          "type": "uint256"
        }
      ],
      "name": "_allTokens",
      "outputs": [
        {
          "internalType": "uint256",
          "name": "",
          "type": "uint256"
        }
      ],
      "payable": false,
      "stateMutability": "view",
      "type": "function"
    },
    {
      "constant": true,
      "inputs": [
        {
          "internalType": "uint256",
          "name": "",
          "type": "uint256"
        }
      ],
      "name": "_my_solutions",
      "outputs": [
        {
          "internalType": "uint256",
          "name": "_index",
          "type": "uint256"
        },
        {
          "internalType": "address",
          "name": "_address",
          "type": "address"
        }
      ],
      "payable": false,
      "stateMutability": "view",
      "type": "function"
    },
    {
      "constant": false,
      "inputs": [
        {
          "internalType": "address",
          "name": "to",
          "type": "address"
        },
        {
          "internalType": "uint256",
          "name": "tokenId",
          "type": "uint256"
        }
      ],
      "name": "approve",
      "outputs": [],
      "payable": false,
      "stateMutability": "nonpayable",
      "type": "function"
    },
    {
      "constant": true,
      "inputs": [
        {
          "internalType": "address",
          "name": "owner",
          "type": "address"
        }
      ],
      "name": "balanceOf",
      "outputs": [
        {
          "internalType": "uint256",
          "name": "",
          "type": "uint256"
        }
      ],
      "payable": false,
      "stateMutability": "view",
      "type": "function"
    },
    {
      "constant": true,
      "inputs": [
        {
          "internalType": "uint256",
          "name": "tokenId",
          "type": "uint256"
        }
      ],
      "name": "getApproved",
      "outputs": [
        {
          "internalType": "address",
          "name": "",
          "type": "address"
        }
      ],
      "payable": false,
      "stateMutability": "view",
      "type": "function"
    },
    {
      "constant": true,
      "inputs": [],
      "name": "get_baseTokenURI",
      "outputs": [
        {
          "internalType": "string",
          "name": "",
          "type": "string"
        }
      ],
      "payable": false,
      "stateMutability": "view",
      "type": "function"
    },
    {
      "constant": true,
      "inputs": [],
      "name": "get_name",
      "outputs": [
        {
          "internalType": "string",
          "name": "",
          "type": "string"
        }
      ],
      "payable": false,
      "stateMutability": "view",
      "type": "function"
    },
    {
      "constant": true,
      "inputs": [],
      "name": "get_owner",
      "outputs": [
        {
          "internalType": "address",
          "name": "",
          "type": "address"
        }
      ],
      "payable": false,
      "stateMutability": "view",
      "type": "function"
    },
    {
      "constant": true,
      "inputs": [],
      "name": "get_symbol",
      "outputs": [
        {
          "internalType": "string",
          "name": "",
          "type": "string"
        }
      ],
      "payable": false,
      "stateMutability": "view",
      "type": "function"
    },
    {
      "constant": true,
      "inputs": [
        {
          "internalType": "address",
          "name": "owner",
          "type": "address"
        },
        {
          "internalType": "address",
          "name": "operator",
          "type": "address"
        }
      ],
      "name": "isApprovedForAll",
      "outputs": [
        {
          "internalType": "bool",
          "name": "",
          "type": "bool"
        }
      ],
      "payable": false,
      "stateMutability": "view",
      "type": "function"
    },
    {
      "constant": true,
      "inputs": [
        {
          "internalType": "uint256",
          "name": "tokenId",
          "type": "uint256"
        }
      ],
      "name": "ownerOf",
      "outputs": [
        {
          "internalType": "address",
          "name": "",
          "type": "address"
        }
      ],
      "payable": false,
      "stateMutability": "view",
      "type": "function"
    },
    {
      "constant": false,
      "inputs": [
        {
          "internalType": "address",
          "name": "from",
          "type": "address"
        },
        {
          "internalType": "address",
          "name": "to",
          "type": "address"
        },
        {
          "internalType": "uint256",
          "name": "tokenId",
          "type": "uint256"
        }
      ],
      "name": "safeTransferFrom",
      "outputs": [],
      "payable": false,
      "stateMutability": "nonpayable",
      "type": "function"
    },
    {
      "constant": false,
      "inputs": [
        {
          "internalType": "address",
          "name": "from",
          "type": "address"
        },
        {
          "internalType": "address",
          "name": "to",
          "type": "address"
        },
        {
          "internalType": "uint256",
          "name": "tokenId",
          "type": "uint256"
        },
        {
          "internalType": "bytes",
          "name": "_data",
          "type": "bytes"
        }
      ],
      "name": "safeTransferFrom",
      "outputs": [],
      "payable": false,
      "stateMutability": "nonpayable",
      "type": "function"
    },
    {
      "constant": false,
      "inputs": [
        {
          "internalType": "address",
          "name": "to",
          "type": "address"
        },
        {
          "internalType": "bool",
          "name": "approved",
          "type": "bool"
        }
      ],
      "name": "setApprovalForAll",
      "outputs": [],
      "payable": false,
      "stateMutability": "nonpayable",
      "type": "function"
    },
    {
      "constant": false,
      "inputs": [
        {
          "internalType": "bool",
          "name": "newValue",
          "type": "bool"
        }
      ],
      "name": "set_paused_value",
      "outputs": [],
      "payable": false,
      "stateMutability": "nonpayable",
      "type": "function"
    },
    {
      "constant": true,
      "inputs": [
        {
          "internalType": "bytes4",
          "name": "interfaceId",
          "type": "bytes4"
        }
      ],
      "name": "supportsInterface",
      "outputs": [
        {
          "internalType": "bool",
          "name": "",
          "type": "bool"
        }
      ],
      "payable": false,
      "stateMutability": "view",
      "type": "function"
    },
    {
      "constant": true,
      "inputs": [
        {
          "internalType": "uint256",
          "name": "index",
          "type": "uint256"
        }
      ],
      "name": "tokenByIndex",
      "outputs": [
        {
          "internalType": "uint256",
          "name": "",
          "type": "uint256"
        }
      ],
      "payable": false,
      "stateMutability": "view",
      "type": "function"
    },
    {
      "constant": true,
      "inputs": [
        {
          "internalType": "address",
          "name": "owner",
          "type": "address"
        },
        {
          "internalType": "uint256",
          "name": "index",
          "type": "uint256"
        }
      ],
      "name": "tokenOfOwnerByIndex",
      "outputs": [
        {
          "internalType": "uint256",
          "name": "",
          "type": "uint256"
        }
      ],
      "payable": false,
      "stateMutability": "view",
      "type": "function"
    },
    {
      "constant": true,
      "inputs": [
        {
          "internalType": "uint256",
          "name": "tokenId",
          "type": "uint256"
        }
      ],
      "name": "tokenURI",
      "outputs": [
        {
          "internalType": "string",
          "name": "",
          "type": "string"
        }
      ],
      "payable": false,
      "stateMutability": "view",
      "type": "function"
    },
    {
      "constant": true,
      "inputs": [],
      "name": "totalSupply",
      "outputs": [
        {
          "internalType": "uint256",
          "name": "",
          "type": "uint256"
        }
      ],
      "payable": false,
      "stateMutability": "view",
      "type": "function"
    },
    {
      "constant": false,
      "inputs": [
        {
          "internalType": "address",
          "name": "from",
          "type": "address"
        },
        {
          "internalType": "address",
          "name": "to",
          "type": "address"
        },
        {
          "internalType": "uint256",
          "name": "tokenId",
          "type": "uint256"
        }
      ],
      "name": "transferFrom",
      "outputs": [],
      "payable": false,
      "stateMutability": "nonpayable",
      "type": "function"
    },
    {
      "constant": false,
      "inputs": [
        {
          "internalType": "address",
          "name": "newOwner",
          "type": "address"
        }
      ],
      "name": "transferOwnership",
      "outputs": [],
      "payable": false,
      "stateMutability": "nonpayable",
      "type": "function"
    },
    {
      "constant": false,
      "inputs": [
        {
          "internalType": "uint256",
          "name": "key",
          "type": "uint256"
        }
      ],
      "name": "add_solution",
      "outputs": [],
      "payable": false,
      "stateMutability": "nonpayable",
      "type": "function"
    },
    {
      "constant": false,
      "inputs": [
        {
          "internalType": "uint256[2]",
          "name": "a",
          "type": "uint256[2]"
        },
        {
          "internalType": "uint256[2][2]",
          "name": "b",
          "type": "uint256[2][2]"
        },
        {
          "internalType": "uint256[2]",
          "name": "c",
          "type": "uint256[2]"
        },
        {
          "internalType": "uint256[2]",
          "name": "input",
          "type": "uint256[2]"
        },
        {
          "internalType": "address",
          "name": "to",
          "type": "address"
        },
        {
          "internalType": "uint256",
          "name": "tokenId",
          "type": "uint256"
        }
      ],
      "name": "mint",
      "outputs": [],
      "payable": false,
      "stateMutability": "nonpayable",
      "type": "function"
    },
    {
      "constant": false,
      "inputs": [
        {
          "internalType": "address",
          "name": "to",
          "type": "address"
        },
        {
          "internalType": "uint256",
          "name": "tokenId",
          "type": "uint256"
        }
      ],
      "name": "mint",
      "outputs": [
        {
          "internalType": "bool",
          "name": "",
          "type": "bool"
        }
      ],
      "payable": false,
      "stateMutability": "nonpayable",
      "type": "function"
    },
    {
      "constant": true,
      "inputs": [
        {
          "internalType": "uint256",
          "name": "key",
          "type": "uint256"
        }
      ],
      "name": "is_already_added",
      "outputs": [
        {
          "internalType": "bool",
          "name": "",
          "type": "bool"
        }
      ],
      "payable": false,
      "stateMutability": "view",
      "type": "function"
    }
  ],
  "bytecode": "0x60806040523480156200001157600080fd5b506040516200402d3803806200402d833981810160405260608110156200003757600080fd5b8101908080519060200190929190805160405193929190846401000000008211156200006257600080fd5b838201915060208201858111156200007957600080fd5b82518660018202830111640100000000821117156200009757600080fd5b8083526020830192505050908051906020019080838360005b83811015620000cd578082015181840152602081019050620000b0565b50505050905090810190601f168015620000fb5780820380516001836020036101000a031916815260200191505b50604052602001805160405193929190846401000000008211156200011f57600080fd5b838201915060208201858111156200013657600080fd5b82518660018202830111640100000000821117156200015457600080fd5b8083526020830192505050908051906020019080838360005b838110156200018a5780820151818401526020810190506200016d565b50505050905090810190601f168015620001b85780820380516001836020036101000a031916815260200191505b50604052505050818181816040518060400160405280601d81526020017f68747470733a2f2f444f42454e2e636f6d2f6d795f6f776e5f75726c2f000000815250336000806101000a81548173ffffffffffffffffffffffffffffffffffffffff021916908373ffffffffffffffffffffffffffffffffffffffff1602179055507fa2ea9883a321a3e97b8266c2b078bfeec6d50c711ed71f874a90d500ae2eaf366000809054906101000a900473ffffffffffffffffffffffffffffffffffffffff16604051808273ffffffffffffffffffffffffffffffffffffffff1673ffffffffffffffffffffffffffffffffffffffff16815260200191505060405180910390a160008060146101000a81548160ff0219169083151502179055507f5db9ee0a495bf2e6ff9c91a7834c1ba4fdd244a5e8aa4e537bd38aeae4b073aa33604051808273ffffffffffffffffffffffffffffffffffffffff1673ffffffffffffffffffffffffffffffffffffffff16815260200191505060405180910390a1620003526301ffc9a760e01b6200043460201b60201c565b6200036a6380ac58cd60e01b6200043460201b60201c565b6200038263780e9d6360e01b6200043460201b60201c565b82600f90805190602001906200039a9291906200053d565b508160109080519060200190620003b39291906200053d565b508060119080519060200190620003cc9291906200053d565b50620003e5635b5e139f60e01b6200043460201b60201c565b505050505082601360006101000a81548173ffffffffffffffffffffffffffffffffffffffff021916908373ffffffffffffffffffffffffffffffffffffffff160217905550505050620005ec565b63ffffffff60e01b817bffffffffffffffffffffffffffffffffffffffffffffffffffffffff19161415620004d1576040517f08c379a00000000000000000000000000000000000000000000000000000000081526004018080602001828103825260198152602001807f696e74657266616365496420213d20307866666666666666660000000000000081525060200191505060405180910390fd5b6001806000837bffffffffffffffffffffffffffffffffffffffffffffffffffffffff19167bffffffffffffffffffffffffffffffffffffffffffffffffffffffff1916815260200190815260200160002060006101000a81548160ff02191690831515021790555050565b828054600181600116156101000203166002900490600052602060002090601f016020900481019282601f106200058057805160ff1916838001178555620005b1565b82800160010185558215620005b1579182015b82811115620005b057825182559160200191906001019062000593565b5b509050620005c09190620005c4565b5090565b620005e991905b80821115620005e5576000816000905550600101620005cb565b5090565b90565b613a3180620005fc6000396000f3fe608060405234801561001057600080fd5b50600436106101c35760003560e01c806342842e0e116100f9578063a22cb46511610097578063b88d4fde11610071578063b88d4fde14610cdd578063c87b56dd14610de2578063e985e9c514610e89578063f2fde38b14610f05576101c3565b8063a22cb46514610bd6578063aa5965ae14610c26578063ae17420414610c68576101c3565b80636352211e116100d35780636352211e14610a9c57806366f62a1c14610b0a5780636f18e43614610b3857806370a0823114610b7e576101c3565b806342842e0e146109695780634f6ccce7146109d757806354663ee114610a19576101c3565b806323b872dd11610166578063301b5ab811610140578063301b5ab8146106a157806338bbfa50146107245780633a525c291461088057806340c10f1914610903576101c3565b806323b872dd1461050c57806327dc297e1461057a5780632f745c591461063f576101c3565b8063095ea7b3116101a2578063095ea7b3146102cb5780630ac298dc146103195780630f7fdb931461036357806318160ddd146104ee576101c3565b80626ccc08146101c857806301ffc9a7146101f8578063081812fc1461025d575b600080fd5b6101f6600480360360208110156101de57600080fd5b81019080803515159060200190929190505050610f49565b005b6102436004803603602081101561020e57600080fd5b8101908080357bffffffffffffffffffffffffffffffffffffffffffffffffffffffff191690602001909291905050506110f3565b604051808215151515815260200191505060405180910390f35b6102896004803603602081101561027357600080fd5b810190808035906020019092919050505061115b565b604051808273ffffffffffffffffffffffffffffffffffffffff1673ffffffffffffffffffffffffffffffffffffffff16815260200191505060405180910390f35b610317600480360360408110156102e157600080fd5b81019080803573ffffffffffffffffffffffffffffffffffffffff16906020019092919080359060200190929190505050611198565b005b6103216113af565b604051808273ffffffffffffffffffffffffffffffffffffffff1673ffffffffffffffffffffffffffffffffffffffff16815260200191505060405180910390f35b6104ec600480360361018081101561037a57600080fd5b8101908080604001906002806020026040519081016040528092919082600260200280828437600081840152601f19601f82011690508083019250505050505091929192908060800190600280602002604051908101604052809291906000905b8282101561042f578382604002016002806020026040519081016040528092919082600260200280828437600081840152601f19601f820116905080830192505050505050815260200190600101906103db565b50505050919291929080604001906002806020026040519081016040528092919082600260200280828437600081840152601f19601f820116905080830192505050505050919291929080604001906002806020026040519081016040528092919082600260200280828437600081840152601f19601f8201169050808301925050505050509192919290803573ffffffffffffffffffffffffffffffffffffffff169060200190929190803590602001909291905050506113d8565b005b6104f6611740565b6040518082815260200191505060405180910390f35b6105786004803603606081101561052257600080fd5b81019080803573ffffffffffffffffffffffffffffffffffffffff169060200190929190803573ffffffffffffffffffffffffffffffffffffffff1690602001909291908035906020019092919050505061174d565b005b61063d6004803603604081101561059057600080fd5b8101908080359060200190929190803590602001906401000000008111156105b757600080fd5b8201836020820111156105c957600080fd5b803590602001918460018302840111640100000000831117156105eb57600080fd5b91908080601f016020809104026020016040519081016040528093929190818152602001838380828437600081840152601f19601f8201169050808301925050505050505091929192905050506117bc565b005b61068b6004803603604081101561065557600080fd5b81019080803573ffffffffffffffffffffffffffffffffffffffff169060200190929190803590602001909291905050506117ff565b6040518082815260200191505060405180910390f35b6106a96118be565b6040518080602001828103825283818151815260200191508051906020019080838360005b838110156106e95780820151818401526020810190506106ce565b50505050905090810190601f1680156107165780820380516001836020036101000a031916815260200191505b509250505060405180910390f35b61087e6004803603606081101561073a57600080fd5b81019080803590602001909291908035906020019064010000000081111561076157600080fd5b82018360208201111561077357600080fd5b8035906020019184600183028401116401000000008311171561079557600080fd5b91908080601f016020809104026020016040519081016040528093929190818152602001838380828437600081840152601f19601f820116905080830192505050505050509192919290803590602001906401000000008111156107f857600080fd5b82018360208201111561080a57600080fd5b8035906020019184600183028401116401000000008311171561082c57600080fd5b91908080601f016020809104026020016040519081016040528093929190818152602001838380828437600081840152601f19601f820116905080830192505050505050509192919290505050611960565b005b610888611965565b6040518080602001828103825283818151815260200191508051906020019080838360005b838110156108c85780820151818401526020810190506108ad565b50505050905090810190601f1680156108f55780820380516001836020036101000a031916815260200191505b509250505060405180910390f35b61094f6004803603604081101561091957600080fd5b81019080803573ffffffffffffffffffffffffffffffffffffffff16906020019092919080359060200190929190505050611a07565b604051808215151515815260200191505060405180910390f35b6109d56004803603606081101561097f57600080fd5b81019080803573ffffffffffffffffffffffffffffffffffffffff169060200190929190803573ffffffffffffffffffffffffffffffffffffffff16906020019092919080359060200190929190505050611acb565b005b610a03600480360360208110156109ed57600080fd5b8101908080359060200190929190505050611aeb565b6040518082815260200191505060405180910390f35b610a21611b6b565b6040518080602001828103825283818151815260200191508051906020019080838360005b83811015610a61578082015181840152602081019050610a46565b50505050905090810190601f168015610a8e5780820380516001836020036101000a031916815260200191505b509250505060405180910390f35b610ac860048036036020811015610ab257600080fd5b8101908080359060200190929190505050611c0d565b604051808273ffffffffffffffffffffffffffffffffffffffff1673ffffffffffffffffffffffffffffffffffffffff16815260200191505060405180910390f35b610b3660048036036020811015610b2057600080fd5b8101908080359060200190929190505050611c4a565b005b610b6460048036036020811015610b4e57600080fd5b8101908080359060200190929190505050611d78565b604051808215151515815260200191505060405180910390f35b610bc060048036036020811015610b9457600080fd5b81019080803573ffffffffffffffffffffffffffffffffffffffff169060200190929190505050611da2565b6040518082815260200191505060405180910390f35b610c2460048036036040811015610bec57600080fd5b81019080803573ffffffffffffffffffffffffffffffffffffffff169060200190929190803515159060200190929190505050611df2565b005b610c5260048036036020811015610c3c57600080fd5b8101908080359060200190929190505050611f78565b6040518082815260200191505060405180910390f35b610c9460048036036020811015610c7e57600080fd5b8101908080359060200190929190505050611f99565b604051808381526020018273ffffffffffffffffffffffffffffffffffffffff1673ffffffffffffffffffffffffffffffffffffffff1681526020019250505060405180910390f35b610de060048036036080811015610cf357600080fd5b81019080803573ffffffffffffffffffffffffffffffffffffffff169060200190929190803573ffffffffffffffffffffffffffffffffffffffff1690602001909291908035906020019092919080359060200190640100000000811115610d5a57600080fd5b820183602082011115610d6c57600080fd5b80359060200191846001830284011164010000000083111715610d8e57600080fd5b91908080601f016020809104026020016040519081016040528093929190818152602001838380828437600081840152601f19601f820116905080830192505050505050509192919290505050611fea565b005b610e0e60048036036020811015610df857600080fd5b8101908080359060200190929190505050612010565b6040518080602001828103825283818151815260200191508051906020019080838360005b83811015610e4e578082015181840152602081019050610e33565b50505050905090810190601f168015610e7b5780820380516001836020036101000a031916815260200191505b509250505060405180910390f35b610eeb60048036036040811015610e9f57600080fd5b81019080803573ffffffffffffffffffffffffffffffffffffffff169060200190929190803573ffffffffffffffffffffffffffffffffffffffff169060200190929190505050612140565b604051808215151515815260200191505060405180910390f35b610f4760048036036020811015610f1b57600080fd5b81019080803573ffffffffffffffffffffffffffffffffffffffff1690602001909291905050506121d4565b005b6000809054906101000a900473ffffffffffffffffffffffffffffffffffffffff1673ffffffffffffffffffffffffffffffffffffffff163373ffffffffffffffffffffffffffffffffffffffff1614610fee576040517f08c379a00000000000000000000000000000000000000000000000000000000081526004018080602001828103825260298152602001806139766029913960400191505060405180910390fd5b80600060146101000a81548160ff02191690831515021790555060011515600060149054906101000a900460ff161515141561108c577f62e78cea01bee320cd4e420270b5ea74000d11b0c9f74754ebdbfc544b05a25833604051808273ffffffffffffffffffffffffffffffffffffffff1673ffffffffffffffffffffffffffffffffffffffff16815260200191505060405180910390a16110f0565b7f5db9ee0a495bf2e6ff9c91a7834c1ba4fdd244a5e8aa4e537bd38aeae4b073aa33604051808273ffffffffffffffffffffffffffffffffffffffff1673ffffffffffffffffffffffffffffffffffffffff16815260200191505060405180910390a15b50565b600060016000837bffffffffffffffffffffffffffffffffffffffffffffffffffffffff19167bffffffffffffffffffffffffffffffffffffffffffffffffffffffff1916815260200190815260200160002060009054906101000a900460ff169050919050565b60006003600083815260200190815260200160002060009054906101000a900473ffffffffffffffffffffffffffffffffffffffff169050919050565b60006111a382611c0d565b90508073ffffffffffffffffffffffffffffffffffffffff168373ffffffffffffffffffffffffffffffffffffffff16141561122a576040517f08c379a00000000000000000000000000000000000000000000000000000000081526004018080602001828103825260338152602001806139436033913960400191505060405180910390fd5b8073ffffffffffffffffffffffffffffffffffffffff163373ffffffffffffffffffffffffffffffffffffffff16148061126a57506112698184612140565b5b806112a857508273ffffffffffffffffffffffffffffffffffffffff166112908361115b565b73ffffffffffffffffffffffffffffffffffffffff16145b6112fd576040517f08c379a00000000000000000000000000000000000000000000000000000000081526004018080602001828103825260358152602001806138836035913960400191505060405180910390fd5b826003600084815260200190815260200160002060006101000a81548173ffffffffffffffffffffffffffffffffffffffff021916908373ffffffffffffffffffffffffffffffffffffffff160217905550818373ffffffffffffffffffffffffffffffffffffffff168273ffffffffffffffffffffffffffffffffffffffff167f8c5be1e5ebec7d5bd14f71427d1e84f3dd0314c0f7b2291e5b200ac8c7c3b92560405160405180910390a4505050565b60008060009054906101000a900473ffffffffffffffffffffffffffffffffffffffff16905090565b60001515600060149054906101000a900460ff16151514611461576040517f08c379a00000000000000000000000000000000000000000000000000000000081526004018080602001828103825260188152602001807f49742073686f756c64206e6f74206265207061757365642e000000000000000081525060200191505060405180910390fd5b601360009054906101000a900473ffffffffffffffffffffffffffffffffffffffff1673ffffffffffffffffffffffffffffffffffffffff1663621e9ec0878787876040518563ffffffff1660e01b81526004018085600260200280838360005b838110156114dd5780820151818401526020810190506114c2565b505050509050018460026000925b818410156115315782846020020151600260200280838360005b83811015611520578082015181840152602081019050611505565b5050505090500192600101926114eb565b9250505083600260200280838360005b8381101561155c578082015181840152602081019050611541565b5050505090500182600260200280838360005b8381101561158a57808201518184015260208101905061156f565b5050505090500194505050505060206040518083038186803b1580156115af57600080fd5b505afa1580156115c3573d6000803e3d6000fd5b505050506040513d60208110156115d957600080fd5b810190808051906020019092919050505061163f576040517f08c379a00000000000000000000000000000000000000000000000000000000081526004018080602001828103825260238152602001806138606023913960400191505060405180910390fd5b60001515601560008560006002811061165457fe5b6020020151815260200190815260200160002060009054906101000a900460ff161515146116cd576040517f08c379a00000000000000000000000000000000000000000000000000000000081526004018080602001828103825260298152602001806138376029913960400191505060405180910390fd5b600160156000856000600281106116e057fe5b6020020151815260200190815260200160002060006101000a81548160ff0219169083151502179055506117248360006002811061171a57fe5b6020020151611c4a565b61172e8282611a07565b50611738816123c4565b505050505050565b6000600880549050905090565b611757338261252e565b6117ac576040517f08c379a000000000000000000000000000000000000000000000000000000000815260040180806020018281038252603e81526020018061377a603e913960400191505060405180910390fd5b6117b78383836125c3565b505050565b6117fb828260006040519080825280601f01601f1916602001820160405280156117f55781602001600182028038833980820191505090505b50611960565b5050565b600061180a83611da2565b8210611861576040517f08c379a00000000000000000000000000000000000000000000000000000000081526004018080602001828103825260448152602001806137b86044913960600191505060405180910390fd5b600660008473ffffffffffffffffffffffffffffffffffffffff1673ffffffffffffffffffffffffffffffffffffffff16815260200190815260200160002082815481106118ab57fe5b9060005260206000200154905092915050565b606060108054600181600116156101000203166002900480601f0160208091040260200160405190810160405280929190818152602001828054600181600116156101000203166002900480156119565780601f1061192b57610100808354040283529160200191611956565b820191906000526020600020905b81548152906001019060200180831161193957829003601f168201915b5050505050905090565b505050565b6060600f8054600181600116156101000203166002900480601f0160208091040260200160405190810160405280929190818152602001828054600181600116156101000203166002900480156119fd5780601f106119d2576101008083540402835291602001916119fd565b820191906000526020600020905b8154815290600101906020018083116119e057829003601f168201915b5050505050905090565b60008060009054906101000a900473ffffffffffffffffffffffffffffffffffffffff1673ffffffffffffffffffffffffffffffffffffffff163373ffffffffffffffffffffffffffffffffffffffff1614611aae576040517f08c379a00000000000000000000000000000000000000000000000000000000081526004018080602001828103825260298152602001806139766029913960400191505060405180910390fd5b611ab883836125e7565b611ac1826123c4565b6001905092915050565b611ae683838360405180602001604052806000815250611fea565b505050565b6000611af5611740565b8210611b4c576040517f08c379a000000000000000000000000000000000000000000000000000000000815260040180806020018281038252603b8152602001806137fc603b913960400191505060405180910390fd5b60088281548110611b5957fe5b90600052602060002001549050919050565b606060118054600181600116156101000203166002900480601f016020809104026020016040519081016040528092919081815260200182805460018160011615610100020316600290048015611c035780601f10611bd857610100808354040283529160200191611c03565b820191906000526020600020905b815481529060010190602001808311611be657829003601f168201915b5050505050905090565b60006002600083815260200190815260200160002060009054906101000a900473ffffffffffffffffffffffffffffffffffffffff169050919050565b611c52613650565b60405180604001604052808381526020013373ffffffffffffffffffffffffffffffffffffffff168152509050601481908060018154018082558091505090600182039060005260206000209060020201600090919290919091506000820151816000015560208201518160010160006101000a81548173ffffffffffffffffffffffffffffffffffffffff021916908373ffffffffffffffffffffffffffffffffffffffff1602179055505050507fc413511d3f7e10405a244b917ff0ee32c08207060c0748bc6ac0758c1fdb4a7f81600001518260200151604051808381526020018273ffffffffffffffffffffffffffffffffffffffff1673ffffffffffffffffffffffffffffffffffffffff1681526020019250505060405180910390a15050565b60006015600083815260200190815260200160002060009054906101000a900460ff169050919050565b6000611deb600460008473ffffffffffffffffffffffffffffffffffffffff1673ffffffffffffffffffffffffffffffffffffffff168152602001908152602001600020612608565b9050919050565b3373ffffffffffffffffffffffffffffffffffffffff168273ffffffffffffffffffffffffffffffffffffffff161415611e77576040517f08c379a00000000000000000000000000000000000000000000000000000000081526004018080602001828103825260378152602001806138e46037913960400191505060405180910390fd5b80600560003373ffffffffffffffffffffffffffffffffffffffff1673ffffffffffffffffffffffffffffffffffffffff16815260200190815260200160002060008473ffffffffffffffffffffffffffffffffffffffff1673ffffffffffffffffffffffffffffffffffffffff16815260200190815260200160002060006101000a81548160ff0219169083151502179055508173ffffffffffffffffffffffffffffffffffffffff163373ffffffffffffffffffffffffffffffffffffffff167f17307eab39ab6107e8899845ad3d59bd9653f200f220920489ca2b5937696c3183604051808215151515815260200191505060405180910390a35050565b60088181548110611f8557fe5b906000526020600020016000915090505481565b60148181548110611fa657fe5b90600052602060002090600202016000915090508060000154908060010160009054906101000a900473ffffffffffffffffffffffffffffffffffffffff16905082565b611ff584848461174d565b61200184848484612616565b61200a57600080fd5b50505050565b606061201b826127ff565b61208d576040517f08c379a00000000000000000000000000000000000000000000000000000000081526004018080602001828103825260158152602001807f746f6b656e49642073686f756c642065786973742e000000000000000000000081525060200191505060405180910390fd5b601260008381526020019081526020016000208054600181600116156101000203166002900480601f0160208091040260200160405190810160405280929190818152602001828054600181600116156101000203166002900480156121345780601f1061210957610100808354040283529160200191612134565b820191906000526020600020905b81548152906001019060200180831161211757829003601f168201915b50505050509050919050565b6000600560008473ffffffffffffffffffffffffffffffffffffffff1673ffffffffffffffffffffffffffffffffffffffff16815260200190815260200160002060008373ffffffffffffffffffffffffffffffffffffffff1673ffffffffffffffffffffffffffffffffffffffff16815260200190815260200160002060009054906101000a900460ff16905092915050565b6000809054906101000a900473ffffffffffffffffffffffffffffffffffffffff1673ffffffffffffffffffffffffffffffffffffffff163373ffffffffffffffffffffffffffffffffffffffff1614612279576040517f08c379a00000000000000000000000000000000000000000000000000000000081526004018080602001828103825260298152602001806139766029913960400191505060405180910390fd5b3273ffffffffffffffffffffffffffffffffffffffff163373ffffffffffffffffffffffffffffffffffffffff16146122fd576040517f08c379a00000000000000000000000000000000000000000000000000000000081526004018080602001828103825260288152602001806137526028913960400191505060405180910390fd5b806000806101000a81548173ffffffffffffffffffffffffffffffffffffffff021916908373ffffffffffffffffffffffffffffffffffffffff1602179055507fa2ea9883a321a3e97b8266c2b078bfeec6d50c711ed71f874a90d500ae2eaf366000809054906101000a900473ffffffffffffffffffffffffffffffffffffffff16604051808273ffffffffffffffffffffffffffffffffffffffff1673ffffffffffffffffffffffffffffffffffffffff16815260200191505060405180910390a150565b60006123cf82611c0d565b9050600073ffffffffffffffffffffffffffffffffffffffff168173ffffffffffffffffffffffffffffffffffffffff161415612457576040517f08c379a000000000000000000000000000000000000000000000000000000000815260040180806020018281038252602a8152602001806139d3602a913960400191505060405180910390fd5b61250360118054600181600116156101000203166002900480601f0160208091040260200160405190810160405280929190818152602001828054600181600116156101000203166002900480156124f05780601f106124c5576101008083540402835291602001916124f0565b820191906000526020600020905b8154815290600101906020018083116124d357829003601f168201915b50505050506124fe84612871565b61299e565b601260008481526020019081526020016000209080519060200190612529929190613680565b505050565b60008061253a83611c0d565b90508073ffffffffffffffffffffffffffffffffffffffff168473ffffffffffffffffffffffffffffffffffffffff1614806125a957508373ffffffffffffffffffffffffffffffffffffffff166125918461115b565b73ffffffffffffffffffffffffffffffffffffffff16145b806125ba57506125b98185612140565b5b91505092915050565b6125ce8383836129e2565b6125d88382612c3d565b6125e28282612ddb565b505050565b6125f18282612ea2565b6125fb8282612ddb565b612604816130f6565b5050565b600081600001549050919050565b60006126378473ffffffffffffffffffffffffffffffffffffffff16613142565b61264457600190506127f7565b60008473ffffffffffffffffffffffffffffffffffffffff1663150b7a02338887876040518563ffffffff1660e01b8152600401808573ffffffffffffffffffffffffffffffffffffffff1673ffffffffffffffffffffffffffffffffffffffff1681526020018473ffffffffffffffffffffffffffffffffffffffff1673ffffffffffffffffffffffffffffffffffffffff16815260200183815260200180602001828103825283818151815260200191508051906020019080838360005b8381101561271f578082015181840152602081019050612704565b50505050905090810190601f16801561274c5780820380516001836020036101000a031916815260200191505b5095505050505050602060405180830381600087803b15801561276e57600080fd5b505af1158015612782573d6000803e3d6000fd5b505050506040513d602081101561279857600080fd5b8101908080519060200190929190505050905063150b7a0260e01b7bffffffffffffffffffffffffffffffffffffffffffffffffffffffff1916817bffffffffffffffffffffffffffffffffffffffffffffffffffffffff1916149150505b949350505050565b6000806002600084815260200190815260200160002060009054906101000a900473ffffffffffffffffffffffffffffffffffffffff169050600073ffffffffffffffffffffffffffffffffffffffff168173ffffffffffffffffffffffffffffffffffffffff161415915050919050565b606060008214156128b9576040518060400160405280600181526020017f30000000000000000000000000000000000000000000000000000000000000008152509050612999565b600082905060005b600082146128e3578080600101915050600a82816128db57fe5b0491506128c1565b6060816040519080825280601f01601f1916602001820160405280156129185781602001600182028038833980820191505090505b50905060006001830390505b6000861461299157600a868161293657fe5b0660300160f81b8282806001900393508151811061295057fe5b60200101907effffffffffffffffffffffffffffffffffffffffffffffffffffffffffffff1916908160001a905350600a868161298957fe5b049550612924565b819450505050505b919050565b60606129da838360405180602001604052806000815250604051806020016040528060008152506040518060200160405280600081525061318d565b905092915050565b6129eb81611c0d565b73ffffffffffffffffffffffffffffffffffffffff168373ffffffffffffffffffffffffffffffffffffffff1614612a6e576040517f08c379a000000000000000000000000000000000000000000000000000000000815260040180806020018281038252603481526020018061399f6034913960400191505060405180910390fd5b600073ffffffffffffffffffffffffffffffffffffffff168273ffffffffffffffffffffffffffffffffffffffff161415612af4576040517f08c379a000000000000000000000000000000000000000000000000000000000815260040180806020018281038252602881526020018061391b6028913960400191505060405180910390fd5b612afd8161344f565b612b44600460008573ffffffffffffffffffffffffffffffffffffffff1673ffffffffffffffffffffffffffffffffffffffff16815260200190815260200160002061350d565b612b8b600460008473ffffffffffffffffffffffffffffffffffffffff1673ffffffffffffffffffffffffffffffffffffffff168152602001908152602001600020613530565b816002600083815260200190815260200160002060006101000a81548173ffffffffffffffffffffffffffffffffffffffff021916908373ffffffffffffffffffffffffffffffffffffffff160217905550808273ffffffffffffffffffffffffffffffffffffffff168473ffffffffffffffffffffffffffffffffffffffff167fddf252ad1be2c89b69c2b068fc378daa952ba7f163c4a11628f55a4df523b3ef60405160405180910390a4505050565b6000612c956001600660008673ffffffffffffffffffffffffffffffffffffffff1673ffffffffffffffffffffffffffffffffffffffff1681526020019081526020016000208054905061354690919063ffffffff16565b9050600060076000848152602001908152602001600020549050818114612d82576000600660008673ffffffffffffffffffffffffffffffffffffffff1673ffffffffffffffffffffffffffffffffffffffff1681526020019081526020016000208381548110612d0257fe5b9060005260206000200154905080600660008773ffffffffffffffffffffffffffffffffffffffff1673ffffffffffffffffffffffffffffffffffffffff1681526020019081526020016000208381548110612d5a57fe5b9060005260206000200181905550816007600083815260200190815260200160002081905550505b600660008573ffffffffffffffffffffffffffffffffffffffff1673ffffffffffffffffffffffffffffffffffffffff168152602001908152602001600020805480919060019003612dd49190613700565b5050505050565b600660008373ffffffffffffffffffffffffffffffffffffffff1673ffffffffffffffffffffffffffffffffffffffff168152602001908152602001600020805490506007600083815260200190815260200160002081905550600660008373ffffffffffffffffffffffffffffffffffffffff1673ffffffffffffffffffffffffffffffffffffffff1681526020019081526020016000208190806001815401808255809150509060018203906000526020600020016000909192909190915055505050565b600073ffffffffffffffffffffffffffffffffffffffff166002600083815260200190815260200160002060009054906101000a900473ffffffffffffffffffffffffffffffffffffffff1673ffffffffffffffffffffffffffffffffffffffff1614612f77576040517f08c379a000000000000000000000000000000000000000000000000000000000815260040180806020018281038252601b8152602001807f54686520746f6b656e49642065786973747320616c72656164792e000000000081525060200191505060405180910390fd5b600073ffffffffffffffffffffffffffffffffffffffff168273ffffffffffffffffffffffffffffffffffffffff161415612ffd576040517f08c379a000000000000000000000000000000000000000000000000000000000815260040180806020018281038252602c8152602001806138b8602c913960400191505060405180910390fd5b816002600083815260200190815260200160002060006101000a81548173ffffffffffffffffffffffffffffffffffffffff021916908373ffffffffffffffffffffffffffffffffffffffff160217905550613096600460008473ffffffffffffffffffffffffffffffffffffffff1673ffffffffffffffffffffffffffffffffffffffff168152602001908152602001600020613530565b808273ffffffffffffffffffffffffffffffffffffffff16600073ffffffffffffffffffffffffffffffffffffffff167fddf252ad1be2c89b69c2b068fc378daa952ba7f163c4a11628f55a4df523b3ef60405160405180910390a45050565b6008805490506009600083815260200190815260200160002081905550600881908060018154018082558091505090600182039060005260206000200160009091929091909150555050565b60008060007fc5d2460186f7233c927e7db2dcc703c0e500b653ca82273b7bfad8045d85a47060001b9050833f915080821415801561318457506000801b8214155b92505050919050565b6060808690506060869050606086905060608690506060869050606081518351855187518951010101016040519080825280601f01601f1916602001820160405280156131e95781602001600182028038833980820191505090505b509050606081905060008090506000809050600090505b885181101561326e5788818151811061321557fe5b602001015160f81c60f81b83838060010194508151811061323257fe5b60200101907effffffffffffffffffffffffffffffffffffffffffffffffffffffffffffff1916908160001a9053508080600101915050613200565b600090505b87518110156132e15787818151811061328857fe5b602001015160f81c60f81b8383806001019450815181106132a557fe5b60200101907effffffffffffffffffffffffffffffffffffffffffffffffffffffffffffff1916908160001a9053508080600101915050613273565b600090505b8651811015613354578681815181106132fb57fe5b602001015160f81c60f81b83838060010194508151811061331857fe5b60200101907effffffffffffffffffffffffffffffffffffffffffffffffffffffffffffff1916908160001a90535080806001019150506132e6565b600090505b85518110156133c75785818151811061336e57fe5b602001015160f81c60f81b83838060010194508151811061338b57fe5b60200101907effffffffffffffffffffffffffffffffffffffffffffffffffffffffffffff1916908160001a9053508080600101915050613359565b600090505b845181101561343a578481815181106133e157fe5b602001015160f81c60f81b8383806001019450815181106133fe57fe5b60200101907effffffffffffffffffffffffffffffffffffffffffffffffffffffffffffff1916908160001a90535080806001019150506133cc565b82995050505050505050505095945050505050565b600073ffffffffffffffffffffffffffffffffffffffff166003600083815260200190815260200160002060009054906101000a900473ffffffffffffffffffffffffffffffffffffffff1673ffffffffffffffffffffffffffffffffffffffff161461350a5760006003600083815260200190815260200160002060006101000a81548173ffffffffffffffffffffffffffffffffffffffff021916908373ffffffffffffffffffffffffffffffffffffffff1602179055505b50565b6135256001826000015461354690919063ffffffff16565b816000018190555050565b6001816000016000828254019250508190555050565b600061358883836040518060400160405280601e81526020017f536166654d6174683a207375627472616374696f6e206f766572666c6f770000815250613590565b905092915050565b600083831115829061363d576040517f08c379a00000000000000000000000000000000000000000000000000000000081526004018080602001828103825283818151815260200191508051906020019080838360005b838110156136025780820151818401526020810190506135e7565b50505050905090810190601f16801561362f5780820380516001836020036101000a031916815260200191505b509250505060405180910390fd5b5060008385039050809150509392505050565b604051806040016040528060008152602001600073ffffffffffffffffffffffffffffffffffffffff1681525090565b828054600181600116156101000203166002900490600052602060002090601f016020900481019282601f106136c157805160ff19168380011785556136ef565b828001600101855582156136ef579182015b828111156136ee5782518255916020019190600101906136d3565b5b5090506136fc919061372c565b5090565b81548183558181111561372757818360005260206000209182019101613726919061372c565b5b505050565b61374e91905b8082111561374a576000816000905550600101613732565b5090565b9056fe41207265616c20706572736f6e2073686f756c642063616c6c20746869732066756e6374696f6e2e5468652073656e6465722073686f756c6420626520617070726f766564206279206f776e657220746f206f7065726174652074686520746f6b656e49642e54686520696e64657820666f722074686520617272617920746f6b656e4f664f776e65724279496e6465782069732072756e6e696e67206f7574206f662072616e67652e54686520696e64657820666f7220746865206172726179205f616c6c546f6b656e732069732072756e6e696e67206f7574206f662072616e67652e546865207a6b2d736e61726b2070726f6f662063616e206f6e6c792062652075736564206f6e63652e596f7572207a6b2d736e61726b2070726f6f662068617320746f20626520747275652e5468697320616464726573732073686f756c6420626520617070726f76656420746f206f7065726174652074686520746f6b656e2e54686520746f20616464726573732073686f756c64206e6f742062652074686520616464726573732830292e54686520746f20616464726573732073686f756c64206e6f74206265207468652073656e646572206f6620746865206d6573736167652e54686520746f20616464726573732073686f756c64206e6f7420626520616464726573732830292e54686520616464726573732073686f756c64206e6f7420626520746865206f776e6572206f662074686520746f6b656e49642e4f6e6c7920746865206f776e65722063616e206578656375746520746869732046756e6374696f6e2e5468652066726f6d20616464726573732073686f756c6420626520746865206f776e6572206f662074686520746f6b656e49642e4f776e6572206f6620746f6b656e49642073686f756c64206e6f7420626520616464726573732830292ea265627a7a72315820b9ac6bf3e89ed8825af143a086f2dcec276a4df86ab7044e6794be8c949d020564736f6c63430005110032",
  "source": "pragma solidity >=0.4.21 <0.6.0;\n\n// TODO define a contract call to the zokrates generated solidity contract <Verifier> or <renamedVerifier>\nimport \"./ERC721Mintable.sol\";\nimport \"./SquareVerifier.sol\";\n\n// TODO define another contract named SolnSquareVerifier that inherits from your ERC721Mintable class\ncontract SolnSquareVerifier is CustomERC721Token{\n\n    SquareVerifier squareVerifier;\n\n    constructor(address squareVerifier_address, string memory name, string memory symbol) CustomERC721Token( name, symbol) public {\n        squareVerifier=SquareVerifier(squareVerifier_address);\n    }\n\n    // TODO define a solutions struct that can hold an index & an address\n    struct Solutions{\n        uint256 _index;\n        address _address;\n    }\n\n    // TODO define an array of the above struct\n    Solutions[] public _my_solutions;\n\n    // TODO define a mapping to store unique solutions submitted\n    mapping(uint256=>bool)  _unique_solutions;  \n\n    // TODO Create an event to emit when a solution is added\n    event Solution_added(uint256 _index,  address _address);\n\n    // TODO Create a function to add the solutions to the array and emit the event\n    function add_solution(uint256 key) public {\n        Solutions memory new_solution=Solutions(key,msg.sender);\n        _my_solutions.push(new_solution);\n        emit Solution_added(new_solution._index,  new_solution._address);\n    }\n\n    // TODO Create a function to mint new NFT only after the solution has been verified\n    //  - make sure the solution is unique (has not been used before)\n    //  - make sure you handle metadata as well as tokenSuplly\n    function mint(uint[2] memory a, uint[2][2] memory b, uint[2] memory c, uint[2] memory input, address to, uint256 tokenId) whenNotPaused() public{\n        require(squareVerifier.verifyTx(a, b, c, input), 'Your zk-snark proof has to be true.');\n        require(_unique_solutions[input[0]] == false, 'The zk-snark proof can only be used once.');\n        _unique_solutions[input[0]] = true;\n        add_solution(input[0]);\n        super.mint(to,tokenId);\n        super.setTokenURI(tokenId);\n    }\n\n    function is_already_added(uint256 key) view public returns (bool){\n        return _unique_solutions[key];\n    }\n}",
  "sourcePath": "/home/doris/Desktop/udacity_spaeter_hinzufuegen/Final_Project/Blockchain-Capstone-master/eth-contracts/contracts/SolnSquareVerifier.sol",
  "compiler": {
    "name": "solc",
    "version": "0.5.17+commit.d19bba13.Emscripten.clang"
  },
  "schemaVersion": "3.2.3",
  "updatedAt": "2020-08-12T21:57:14.306Z",
  "networkType": "ethereum",
  "devdoc": {
    "methods": {
      "isApprovedForAll(address,address)": {
        "details": "Tells whether an operator is approved by a given owner",
        "params": {
          "operator": "operator address which you want to query the approval of",
          "owner": "owner address which you want to query the approval of"
        },
        "return": "bool whether the given operator is approved by the given owner"
      },
      "setApprovalForAll(address,bool)": {
        "details": "Sets or unsets the approval of a given operator An operator is allowed to transfer all tokens of the sender on their behalf",
        "params": {
          "approved": "representing the status of the approval to be set",
          "to": "operator address to set the approval"
        }
      },
      "supportsInterface(bytes4)": {
        "details": "implement supportsInterface(bytes4) using a lookup table"
      },
      "tokenByIndex(uint256)": {
        "details": "Gets the token ID at a given index of all the tokens in this contract Reverts if the index is greater or equal to the total number of tokens",
        "params": {
          "index": "uint256 representing the index to be accessed of the tokens list"
        },
        "return": "uint256 token ID at the given index of the tokens list"
      },
      "tokenOfOwnerByIndex(address,uint256)": {
        "details": "Gets the token ID at a given index of the tokens list of the requested owner",
        "params": {
          "index": "uint256 representing the index to be accessed of the requested tokens list",
          "owner": "address owning the tokens list to be accessed"
        },
        "return": "uint256 token ID at the given index of the tokens list owned by the requested address"
      },
      "totalSupply()": {
        "details": "Gets the total amount of tokens stored by the contract",
        "return": "uint256 representing the total amount of tokens"
      }
    }
  },
  "userdoc": {
    "methods": {}
  }
}