{
  "contractName": "FlightSuretyData",
  "abi": [
    {
      "constant": true,
      "inputs": [],
      "name": "num_registered_airlines",
      "outputs": [
        {
          "name": "",
          "type": "uint256"
        }
      ],
      "payable": false,
      "stateMutability": "view",
      "type": "function"
    },
    {
      "constant": true,
      "inputs": [
        {
          "name": "",
          "type": "uint256"
        }
      ],
      "name": "contracts_allowed_to_access_data",
      "outputs": [
        {
          "name": "",
          "type": "address"
        }
      ],
      "payable": false,
      "stateMutability": "view",
      "type": "function"
    },
    {
      "constant": true,
      "inputs": [
        {
          "name": "",
          "type": "bytes32"
        },
        {
          "name": "",
          "type": "uint256"
        }
      ],
      "name": "bettors_for_flights",
      "outputs": [
        {
          "name": "",
          "type": "address"
        }
      ],
      "payable": false,
      "stateMutability": "view",
      "type": "function"
    },
    {
      "constant": true,
      "inputs": [
        {
          "name": "",
          "type": "address"
        }
      ],
      "name": "eligible_refund",
      "outputs": [
        {
          "name": "",
          "type": "uint256"
        }
      ],
      "payable": false,
      "stateMutability": "view",
      "type": "function"
    },
    {
      "constant": true,
      "inputs": [
        {
          "name": "",
          "type": "address"
        }
      ],
      "name": "registered_airlines",
      "outputs": [
        {
          "name": "",
          "type": "bool"
        }
      ],
      "payable": false,
      "stateMutability": "view",
      "type": "function"
    },
    {
      "constant": true,
      "inputs": [
        {
          "name": "",
          "type": "address"
        },
        {
          "name": "",
          "type": "bytes32"
        }
      ],
      "name": "bet",
      "outputs": [
        {
          "name": "",
          "type": "uint256"
        }
      ],
      "payable": false,
      "stateMutability": "view",
      "type": "function"
    },
    {
      "inputs": [
        {
          "name": "firstAirline",
          "type": "address"
        }
      ],
      "payable": false,
      "stateMutability": "nonpayable",
      "type": "constructor"
    },
    {
      "payable": true,
      "stateMutability": "payable",
      "type": "fallback"
    },
    {
      "constant": true,
      "inputs": [
        {
          "name": "airline",
          "type": "address"
        }
      ],
      "name": "isAirline",
      "outputs": [
        {
          "name": "",
          "type": "bool"
        }
      ],
      "payable": false,
      "stateMutability": "view",
      "type": "function"
    },
    {
      "constant": true,
      "inputs": [],
      "name": "isOperational",
      "outputs": [
        {
          "name": "",
          "type": "bool"
        }
      ],
      "payable": false,
      "stateMutability": "view",
      "type": "function"
    },
    {
      "constant": false,
      "inputs": [
        {
          "name": "contract_address",
          "type": "address"
        }
      ],
      "name": "authorizeCaller",
      "outputs": [],
      "payable": false,
      "stateMutability": "nonpayable",
      "type": "function"
    },
    {
      "constant": false,
      "inputs": [
        {
          "name": "mode",
          "type": "bool"
        }
      ],
      "name": "setOperatingStatus",
      "outputs": [],
      "payable": false,
      "stateMutability": "nonpayable",
      "type": "function"
    },
    {
      "constant": false,
      "inputs": [
        {
          "name": "approver",
          "type": "address"
        },
        {
          "name": "airline",
          "type": "address"
        }
      ],
      "name": "registerAirline2",
      "outputs": [],
      "payable": false,
      "stateMutability": "nonpayable",
      "type": "function"
    },
    {
      "constant": false,
      "inputs": [
        {
          "name": "key",
          "type": "bytes32"
        },
        {
          "name": "buyer",
          "type": "address"
        }
      ],
      "name": "buy2",
      "outputs": [
        {
          "name": "return_value",
          "type": "bool"
        }
      ],
      "payable": true,
      "stateMutability": "payable",
      "type": "function"
    },
    {
      "constant": false,
      "inputs": [
        {
          "name": "refund_address",
          "type": "address"
        },
        {
          "name": "reward",
          "type": "uint256"
        }
      ],
      "name": "withdraw2",
      "outputs": [],
      "payable": false,
      "stateMutability": "nonpayable",
      "type": "function"
    },
    {
      "constant": false,
      "inputs": [
        {
          "name": "key",
          "type": "bytes32"
        }
      ],
      "name": "process_refund2",
      "outputs": [],
      "payable": false,
      "stateMutability": "nonpayable",
      "type": "function"
    },
    {
      "constant": true,
      "inputs": [
        {
          "name": "airline",
          "type": "address"
        },
        {
          "name": "flight_name",
          "type": "string"
        },
        {
          "name": "timestamp",
          "type": "uint256"
        }
      ],
      "name": "getFlightKey",
      "outputs": [
        {
          "name": "",
          "type": "bytes32"
        }
      ],
      "payable": false,
      "stateMutability": "pure",
      "type": "function"
    },
    {
      "constant": false,
      "inputs": [],
      "name": "fund2",
      "outputs": [],
      "payable": true,
      "stateMutability": "payable",
      "type": "function"
    }
  ],
  "bytecode": "0x60806040526001600060146101000a81548160ff0219169083151502179055506000604051908082528060200260200182016040528015620000505781602001602082028038833980820191505090505b50600190805190602001906200006892919062000150565b5060006003553480156200007b57600080fd5b5060405160208062001b2183398101806040528101908080519060200190929190505050336000806101000a81548173ffffffffffffffffffffffffffffffffffffffff021916908373ffffffffffffffffffffffffffffffffffffffff1602179055506001600260008373ffffffffffffffffffffffffffffffffffffffff1673ffffffffffffffffffffffffffffffffffffffff16815260200190815260200160002060006101000a81548160ff0219169083151502179055506003600081548092919060010191905055505062000225565b828054828255906000526020600020908101928215620001cc579160200282015b82811115620001cb5782518260006101000a81548173ffffffffffffffffffffffffffffffffffffffff021916908373ffffffffffffffffffffffffffffffffffffffff1602179055509160200191906001019062000171565b5b509050620001db9190620001df565b5090565b6200022291905b808211156200021e57600081816101000a81549073ffffffffffffffffffffffffffffffffffffffff021916905550600101620001e6565b5090565b90565b6118ec80620002356000396000f3006080604052600436106100e6576000357c0100000000000000000000000000000000000000000000000000000000900463ffffffff1680630e248a11146100e8578063110466ed146101435780632c388d5d146101725780632e6392fe146101b557806332d71b17146101e05780636100b4811461024d57806366121862146102c857806373a2915f1461031f5780639255312e1461037a578063a5730e8d146103ab578063bddd86d014610407578063cd905dff1461046a578063d9917d1c14610499578063db13b24f146104fe578063dfc0dff01461054b578063e679aa7b146105fa575b005b3480156100f457600080fd5b50610129600480360381019080803573ffffffffffffffffffffffffffffffffffffffff169060200190929190505050610604565b604051808215151515815260200191505060405180910390f35b34801561014f57600080fd5b5061017060048036038101908080351515906020019092919050505061065a565b005b34801561017e57600080fd5b506101b3600480360381019080803573ffffffffffffffffffffffffffffffffffffffff16906020019092919050505061073b565b005b3480156101c157600080fd5b506101ca610912565b6040518082815260200191505060405180910390f35b3480156101ec57600080fd5b5061020b60048036038101908080359060200190929190505050610918565b604051808273ffffffffffffffffffffffffffffffffffffffff1673ffffffffffffffffffffffffffffffffffffffff16815260200191505060405180910390f35b34801561025957600080fd5b50610286600480360381019080803560001916906020019092919080359060200190929190505050610956565b604051808273ffffffffffffffffffffffffffffffffffffffff1673ffffffffffffffffffffffffffffffffffffffff16815260200191505060405180910390f35b3480156102d457600080fd5b50610309600480360381019080803573ffffffffffffffffffffffffffffffffffffffff1690602001909291905050506109a3565b6040518082815260200191505060405180910390f35b34801561032b57600080fd5b50610360600480360381019080803573ffffffffffffffffffffffffffffffffffffffff1690602001909291905050506109bb565b604051808215151515815260200191505060405180910390f35b34801561038657600080fd5b506103a960048036038101908080356000191690602001909291905050506109db565b005b6103ed6004803603810190808035600019169060200190929190803573ffffffffffffffffffffffffffffffffffffffff169060200190929190505050610d6d565b604051808215151515815260200191505060405180910390f35b34801561041357600080fd5b50610468600480360381019080803573ffffffffffffffffffffffffffffffffffffffff169060200190929190803573ffffffffffffffffffffffffffffffffffffffff16906020019092919050505061108e565b005b34801561047657600080fd5b5061047f611413565b604051808215151515815260200191505060405180910390f35b3480156104a557600080fd5b506104e8600480360381019080803573ffffffffffffffffffffffffffffffffffffffff1690602001909291908035600019169060200190929190505050611429565b6040518082815260200191505060405180910390f35b34801561050a57600080fd5b50610549600480360381019080803573ffffffffffffffffffffffffffffffffffffffff1690602001909291908035906020019092919050505061144e565b005b34801561055757600080fd5b506105dc600480360381019080803573ffffffffffffffffffffffffffffffffffffffff169060200190929190803590602001908201803590602001908080601f01602080910402602001604051908101604052809392919081815260200183838082843782019150505050505091929192908035906020019092919050505061177d565b60405180826000191660001916815260200191505060405180910390f35b6106026118a2565b005b6000600260008373ffffffffffffffffffffffffffffffffffffffff1673ffffffffffffffffffffffffffffffffffffffff16815260200190815260200160002060009054906101000a900460ff169050919050565b6000809054906101000a900473ffffffffffffffffffffffffffffffffffffffff1673ffffffffffffffffffffffffffffffffffffffff163373ffffffffffffffffffffffffffffffffffffffff1614151561071e576040517f08c379a000000000000000000000000000000000000000000000000000000000815260040180806020018281038252601c8152602001807f43616c6c6572206973206e6f7420636f6e7472616374206f776e65720000000081525060200191505060405180910390fd5b80600060146101000a81548160ff02191690831515021790555050565b6000809054906101000a900473ffffffffffffffffffffffffffffffffffffffff1673ffffffffffffffffffffffffffffffffffffffff163373ffffffffffffffffffffffffffffffffffffffff161415156107ff576040517f08c379a000000000000000000000000000000000000000000000000000000000815260040180806020018281038252601c8152602001807f43616c6c6572206973206e6f7420636f6e7472616374206f776e65720000000081525060200191505060405180910390fd5b600060149054906101000a900460ff1615156108a9576040517f08c379a00000000000000000000000000000000000000000000000000000000081526004018080602001828103825260258152602001807f436f6e74726163742069732063757272656e746c79206e6f74206f706572617481526020017f696f6e616c00000000000000000000000000000000000000000000000000000081525060400191505060405180910390fd5b60018190806001815401808255809150509060018203906000526020600020016000909192909190916101000a81548173ffffffffffffffffffffffffffffffffffffffff021916908373ffffffffffffffffffffffffffffffffffffffff1602179055505050565b60035481565b60018181548110151561092757fe5b906000526020600020016000915054906101000a900473ffffffffffffffffffffffffffffffffffffffff1681565b60066020528160005260406000208181548110151561097157fe5b906000526020600020016000915091509054906101000a900473ffffffffffffffffffffffffffffffffffffffff1681565b60056020528060005260406000206000915090505481565b60026020528060005260406000206000915054906101000a900460ff1681565b600080600060149054906101000a900460ff161515610a88576040517f08c379a00000000000000000000000000000000000000000000000000000000081526004018080602001828103825260258152602001807f436f6e74726163742069732063757272656e746c79206e6f74206f706572617481526020017f696f6e616c00000000000000000000000000000000000000000000000000000081525060400191505060405180910390fd5b60008060009150600090505b600180549050811015610b24573373ffffffffffffffffffffffffffffffffffffffff16600182815481101515610ac757fe5b9060005260206000200160009054906101000a900473ffffffffffffffffffffffffffffffffffffffff1673ffffffffffffffffffffffffffffffffffffffff161415610b175760019150610b24565b8080600101915050610a94565b60011515821515141515610bec576040517f08c379a000000000000000000000000000000000000000000000000000000000815260040180806020018281038252604d8152602001807f4f6e6c79207065726d697373696f6e656420436f6e747261637420416464726581526020017f737365732061726520616c6c6f77656420746f2061636365737320746865204481526020017f61746120436f6e74726163742e0000000000000000000000000000000000000081525060600191505060405180910390fd5b600093505b60066000866000191660001916815260200190815260200160002080549050841015610d665760066000866000191660001916815260200190815260200160002084815481101515610c3f57fe5b9060005260206000200160009054906101000a900473ffffffffffffffffffffffffffffffffffffffff169250610d16600460008573ffffffffffffffffffffffffffffffffffffffff1673ffffffffffffffffffffffffffffffffffffffff1681526020019081526020016000206000876000191660001916815260200190815260200160002054600560008673ffffffffffffffffffffffffffffffffffffffff1673ffffffffffffffffffffffffffffffffffffffff168152602001908152602001600020546118a490919063ffffffff16565b600560008573ffffffffffffffffffffffffffffffffffffffff1673ffffffffffffffffffffffffffffffffffffffff168152602001908152602001600020819055508380600101945050610bf1565b5050505050565b60008060149054906101000a900460ff161515610e18576040517f08c379a00000000000000000000000000000000000000000000000000000000081526004018080602001828103825260258152602001807f436f6e74726163742069732063757272656e746c79206e6f74206f706572617481526020017f696f6e616c00000000000000000000000000000000000000000000000000000081525060400191505060405180910390fd5b60008060009150600090505b600180549050811015610eb4573373ffffffffffffffffffffffffffffffffffffffff16600182815481101515610e5757fe5b9060005260206000200160009054906101000a900473ffffffffffffffffffffffffffffffffffffffff1673ffffffffffffffffffffffffffffffffffffffff161415610ea75760019150610eb4565b8080600101915050610e24565b60011515821515141515610f7c576040517f08c379a000000000000000000000000000000000000000000000000000000000815260040180806020018281038252604d8152602001807f4f6e6c79207065726d697373696f6e656420436f6e747261637420416464726581526020017f737365732061726520616c6c6f77656420746f2061636365737320746865204481526020017f61746120436f6e74726163742e0000000000000000000000000000000000000081525060600191505060405180910390fd5b3073ffffffffffffffffffffffffffffffffffffffff163460405160006040518083038185875af192505050925034600460008673ffffffffffffffffffffffffffffffffffffffff1673ffffffffffffffffffffffffffffffffffffffff16815260200190815260200160002060008760001916600019168152602001908152602001600020819055506006600086600019166000191681526020019081526020016000208490806001815401808255809150509060018203906000526020600020016000909192909190916101000a81548173ffffffffffffffffffffffffffffffffffffffff021916908373ffffffffffffffffffffffffffffffffffffffff16021790555050505092915050565b60008060009150600090505b60018054905081101561112a573373ffffffffffffffffffffffffffffffffffffffff166001828154811015156110cd57fe5b9060005260206000200160009054906101000a900473ffffffffffffffffffffffffffffffffffffffff1673ffffffffffffffffffffffffffffffffffffffff16141561111d576001915061112a565b808060010191505061109a565b600115158215151415156111f2576040517f08c379a000000000000000000000000000000000000000000000000000000000815260040180806020018281038252604d8152602001807f4f6e6c79207065726d697373696f6e656420436f6e747261637420416464726581526020017f737365732061726520616c6c6f77656420746f2061636365737320746865204481526020017f61746120436f6e74726163742e0000000000000000000000000000000000000081525060600191505060405180910390fd5b600060149054906101000a900460ff16151561129c576040517f08c379a00000000000000000000000000000000000000000000000000000000081526004018080602001828103825260258152602001807f436f6e74726163742069732063757272656e746c79206e6f74206f706572617481526020017f696f6e616c00000000000000000000000000000000000000000000000000000081525060400191505060405180910390fd5b8360016003541015156113985760011515600260008373ffffffffffffffffffffffffffffffffffffffff1673ffffffffffffffffffffffffffffffffffffffff16815260200190815260200160002060009054906101000a900460ff161515141515611397576040517f08c379a00000000000000000000000000000000000000000000000000000000081526004018080602001828103825260368152602001807f546869732066756e6374696f6e2073686f756c642062652063616c6c6564206281526020017f7920612072656769737465726564206169726c696e650000000000000000000081525060400191505060405180910390fd5b5b6001600260008673ffffffffffffffffffffffffffffffffffffffff1673ffffffffffffffffffffffffffffffffffffffff16815260200190815260200160002060006101000a81548160ff02191690831515021790555061140660016003546118a490919063ffffffff16565b6003819055505050505050565b60008060149054906101000a900460ff16905090565b6004602052816000526040600020602052806000526040600020600091509150505481565b600060149054906101000a900460ff1615156114f8576040517f08c379a00000000000000000000000000000000000000000000000000000000081526004018080602001828103825260258152602001807f436f6e74726163742069732063757272656e746c79206e6f74206f706572617481526020017f696f6e616c00000000000000000000000000000000000000000000000000000081525060400191505060405180910390fd5b60008060009150600090505b600180549050811015611594573373ffffffffffffffffffffffffffffffffffffffff1660018281548110151561153757fe5b9060005260206000200160009054906101000a900473ffffffffffffffffffffffffffffffffffffffff1673ffffffffffffffffffffffffffffffffffffffff1614156115875760019150611594565b8080600101915050611504565b6001151582151514151561165c576040517f08c379a000000000000000000000000000000000000000000000000000000000815260040180806020018281038252604d8152602001807f4f6e6c79207065726d697373696f6e656420436f6e747261637420416464726581526020017f737365732061726520616c6c6f77656420746f2061636365737320746865204481526020017f61746120436f6e74726163742e0000000000000000000000000000000000000081525060600191505060405180910390fd5b3073ffffffffffffffffffffffffffffffffffffffff163183111515156116eb576040517f08c379a00000000000000000000000000000000000000000000000000000000081526004018080602001828103825260108152602001807f546f6f206c6573732066756e64696e670000000000000000000000000000000081525060200191505060405180910390fd5b6000600560008673ffffffffffffffffffffffffffffffffffffffff1673ffffffffffffffffffffffffffffffffffffffff168152602001908152602001600020819055508373ffffffffffffffffffffffffffffffffffffffff166108fc849081150290604051600060405180830381858888f19350505050158015611776573d6000803e3d6000fd5b5050505050565b6000838383604051602001808473ffffffffffffffffffffffffffffffffffffffff1673ffffffffffffffffffffffffffffffffffffffff166c0100000000000000000000000002815260140183805190602001908083835b6020831015156117fb57805182526020820191506020810190506020830392506117d6565b6001836020036101000a03801982511681845116808217855250505050505090500182815260200193505050506040516020818303038152906040526040518082805190602001908083835b60208310151561186c5780518252602082019150602081019050602083039250611847565b6001836020036101000a038019825116818451168082178552505050505050905001915050604051809103902090509392505050565b565b600081830190508281101515156118b757fe5b809050929150505600a165627a7a7230582042f836904685c257b83919a2b22250c0e792288132f364c356cc7aa216043bc10029",
  "source": "pragma solidity ^0.4.25;\n\nimport \"../node_modules/openzeppelin-solidity/contracts/math/SafeMath.sol\";\n\ncontract FlightSuretyData {\n    using SafeMath for uint256;\n\n    /********************************************************************************************/\n    /*                                       DATA VARIABLES                                     */\n    /********************************************************************************************/\n\n    address private contractOwner;                                      // Account used to deploy contract\n    bool private operational = true;                                    // Blocks all state changes throughout the contract if false\n    address[] public contracts_allowed_to_access_data =new address[](0);\n\n    mapping(address => bool) public registered_airlines;\n    uint256 public num_registered_airlines=0;\n\n    mapping(address =>mapping(bytes32=>uint256)) public bet;\n\n    mapping(address =>uint256) public eligible_refund;\n\n    mapping(bytes32 => address[]) public bettors_for_flights;\n \n    /********************************************************************************************/\n    /*                                       EVENT DEFINITIONS                                  */\n    /********************************************************************************************/\n\n    /**\n    * @dev Constructor\n    *      The deploying account becomes contractOwner\n    */\n    constructor\n                                (\n                                    address firstAirline\n                                ) \n                                public \n    {\n        contractOwner = msg.sender;\n        registered_airlines[firstAirline]=true;\n        num_registered_airlines++;\n    }\n\n    /********************************************************************************************/\n    /*                                       FUNCTION MODIFIERS                                 */\n    /********************************************************************************************/\n\n    // Modifiers help avoid duplication of code. They are typically used to validate something\n    // before a function is allowed to be executed.\n\n    modifier is_registered_airline(address function_caller){\n        if (num_registered_airlines>=1){\n            require (registered_airlines[function_caller]==true, \"This function should be called by a registered airline\");\n        }\n        _;\n    }\n\n    /**\n    * @dev Modifier that requires the \"operational\" boolean variable to be \"true\"\n    *      This is used on all state changing functions to pause the contract in \n    *      the event there is an issue that needs to be fixed\n    */\n    modifier requireIsOperational() \n    {\n        require(operational, \"Contract is currently not operational\");\n        _;  // All modifiers require an \"_\" which indicates where the function body will be added\n    }\n\n    /**\n    * @dev Modifier that requires the \"ContractOwner\" account to be the function caller\n    */\n    modifier requireContractOwner()\n    {\n        require(msg.sender == contractOwner, \"Caller is not contract owner\");\n        _;\n    }\n\n    modifier only_permissioned_contract_addresses()\n    {\n        bool found = false;\n\n        for (uint i=0;i<contracts_allowed_to_access_data.length;i++){\n            if (contracts_allowed_to_access_data[i]==msg.sender){\n                found=true;\n                break;\n            }   \n        }\n        require(found==true, \"Only permissioned Contract Addresses are allowed to access the Data Contract.\");\n        _;\n    }\n\n    /********************************************************************************************/\n    /*                                       UTILITY FUNCTIONS                                  */\n    /********************************************************************************************/\n\n    function isAirline(address airline) view public returns (bool){\n        return registered_airlines[airline];\n    }\n\n    /**\n    * @dev Get operating status of contract\n    *\n    * @return A bool that is the current operating status\n    */      \n    function isOperational() \n                            public \n                            view \n                            returns(bool) \n    {\n        return operational;\n    }\n\n    function authorizeCaller(address contract_address) \n                            public\n                            requireContractOwner()\n                            requireIsOperational() \n    {\n        contracts_allowed_to_access_data.push(contract_address);\n    }\n\n    /**\n    * @dev Sets contract operations on/off\n    *\n    * When operational mode is disabled, all write transactions except for this one will fail\n    */    \n    function setOperatingStatus\n                            (\n                                bool mode\n                            ) \n                            public\n                            requireContractOwner()\n    {\n        operational = mode;\n    }\n\n    /********************************************************************************************/\n    /*                                     SMART CONTRACT FUNCTIONS                             */\n    /********************************************************************************************/\n\n   /**\n    * @dev Add an airline to the registration queue\n    *      Can only be called from FlightSuretyApp contract\n    *\n    */   \n    function registerAirline2\n                            (\n                                // uint256 votes,\n                                 address approver,\n                                 address airline\n                            )\n                            only_permissioned_contract_addresses()\n                            requireIsOperational() \n                            is_registered_airline(approver)\n                            public\n                         \n    {\n\n        registered_airlines[airline]=true;\n        num_registered_airlines=num_registered_airlines.add(1);\n     \n    }\n\n   /**\n    * @dev Buy insurance for a flight\n    *\n    */   \n    function buy2\n                            (   \n                                bytes32 key,\n                                address buyer                         \n                            )\n                            requireIsOperational() \n                            only_permissioned_contract_addresses()\n                            public\n                            payable\n                            returns (bool return_value)\n    { \n        return_value=address(this).call.value(msg.value)();\n        bet[buyer][key]=msg.value;\n        bettors_for_flights[key].push(buyer);\n    }\n\n    /**\n     *  @dev Transfers eligible payout funds to insuree\n     *\n    */\n    function withdraw2\n                       (\n                           address refund_address,\n                           uint256 reward\n                           \n                        )\n                        requireIsOperational() \n                        only_permissioned_contract_addresses()\n                        public                            \n    {\n        require(reward <= address(this).balance,\"Too less funding\");\n        eligible_refund[refund_address]=0;\n        refund_address.transfer(reward);\n    }\n\n\n     function process_refund2\n                       (\n                           bytes32 key\n                          \n                        )\n                        requireIsOperational() \n                        only_permissioned_contract_addresses()\n                        public                         \n    {\n        for (uint256 i=0;i<bettors_for_flights[key].length;i++){\n            address refund_address=bettors_for_flights[key][i];\n            eligible_refund[refund_address]=eligible_refund[refund_address].add(bet[refund_address][key]);\n        }\n    }\n    \n    function getFlightKey\n                        ( \n                            address airline,\n                            string flight_name,  \n                            uint256 timestamp\n                        )\n                        pure\n                        public\n                        returns(bytes32) \n    {\n        return keccak256(abi.encodePacked(airline, flight_name, timestamp));\n    }\n\n    function fund2() public payable                           \n    {\n       address(this).call.value(msg.value);\n    }\n\n    /**\n    * @dev Fallback function for funding smart contract.\n    *\n    */\n    function() \n                            public\n                            payable                  \n    {\n        address(this).call.value(msg.value);\n    }\n}\n\n",
  "sourcePath": "/home/doris/Desktop/Nanodegree-Program-Udacity-Become-a-Blockchain-Developer/Project_4_FlightSurety/contracts/FlightSuretyData.sol",
  "compiler": {
    "name": "solc",
    "version": "0.4.26+commit.4563c3fc.Emscripten.clang"
  },
  "schemaVersion": "3.2.3",
  "updatedAt": "2020-08-11T10:21:38.188Z",
  "networkType": "ethereum",
  "devdoc": {
    "methods": {
      "buy2(bytes32,address)": {
        "details": "Buy insurance for a flight    "
      },
      "isOperational()": {
        "details": "Get operating status of contract",
        "return": "A bool that is the current operating status"
      },
      "registerAirline2(address,address)": {
        "details": "Add an airline to the registration queue     Can only be called from FlightSuretyApp contract    "
      },
      "setOperatingStatus(bool)": {
        "details": "Sets contract operations on/off    * When operational mode is disabled, all write transactions except for this one will fail"
      },
      "withdraw2(address,uint256)": {
        "details": "Transfers eligible payout funds to insuree    "
      }
    }
  },
  "userdoc": {
    "methods": {
      "isAirline(address)": {
        "notice": "*****************************************************************************************"
      }
    }
  }
}